:020000040800F2
:1000000000280020290E0008B90D0008BF0D0008C7
:10001000C50D0008CB0D0008D10D00080000000040
:10002000000000000000000000000000D70D0008E4
:10003000E30D000800000000EF0D0008FB0D0008B4
:10004000710E0008710E0008710E0008710E000894
:10005000710E0008710E0008710E0008710E000884
:10006000710E0008710E0008710E0008710E000874
:10007000710E0008710E0008710E0008710E000864
:10008000710E0008710E0008710E0008710E000854
:10009000710E0008710E0008710E0008710E000844
:1000A000710E0008710E0008710E0008710E000834
:1000B000090E0008710E000800000000710E000813
:1000C000710E00080000000000000000710E000822
:1000D00000000000710E0008710E00080000000012
:1000E000710E0008710E0008710E0008000000007B
:1000F0000000000000000000000000000000000000
:0C01000000000000000000005FF808F1A3
:10010C0010B5054C237833B9044B13B10448AFF345
:10011C0000800123237010BD4C0000200000000063
:10012C00C824000808B5034B1BB103490348AFF3BF
:10013C00008008BD0000000050000020C82400080A
:10014C0080B400AF064B1B68012B04D1044B00227A
:10015C001A60012300E000231846BD4680BC70479E
:10016C006800002080B400AF064B1B68012B04D143
:10017C00044B00221A60012300E000231846BD4600
:10018C0080BC70476C00002080B400AF064B1B682D
:10019C00012B04D1044B00221A60012300E0002340
:1001AC001846BD4680BC70477000002080B400AF7C
:1001BC00034B01221A6000BFBD4680BC704700BFD4
:1001CC006800002080B400AF034B01221A6000BF0E
:1001DC00BD4680BC704700BF6C00002080B400AFEF
:1001EC00034B01221A6000BFBD4680BC704700BFA4
:1001FC007000002080B500AF224B1B68224A1360B0
:10020C00224B1B681F4A13604FF48071204801F089
:10021C0015F903461A461D4B1A601B4B1A68194BED
:10022C001B689A422CD1174B1A68184B1B689A42C0
:10023C0026D1164B1A68174B1B689A420ED0134BDB
:10024C001B68144A1360114B1B68002B18D1FFF765
:10025C00ADFF114B4FF496721A6011E00E4B1B68F8
:10026C00013B0D4A13600C4B1B68002B08D1074B4C
:10027C001B68002B01D1FFF799FF074B64221A6012
:10028C0000BF80BD040000200000002008000020FA
:10029C00000801400C0000203000002080B500AFA9
:1002AC00224B1B68224A1360224B1B681F4A1360A7
:1002BC004FF40071204801F0C1F803461A461D4B5B
:1002CC001A601B4B1A68194B1B689A422CD1174B9E
:1002DC001A68184B1B689A4226D1164B1A68174B92
:1002EC001B689A420ED0134B1B68144A1360114BB7
:1002FC001B68002B18D1FFF765FF114B4FF496725A
:10030C001A6011E00E4B1B68013B0D4A13600C4B3D
:10031C001B68002B08D1074B1B68002B01D1FFF782
:10032C0051FF074B64221A6000BF80BD14000020EF
:10033C001000002018000020000801401C000020C4
:10034C003400002080B500AF224B1B68224A13609A
:10035C00224B1B681F4A13604FF48061204801F048
:10036C006DF803461A461D4B1A601B4B1A68194B45
:10037C001B689A422CD1174B1A68184B1B689A426F
:10038C0026D1164B1A68174B1B689A420ED0134B8A
:10039C001B68144A1360114B1B68002B18D1FFF714
:1003AC001DFF114B4FF496721A6011E00E4B1B6837
:1003BC00013B0D4A13600C4B1B68002B08D1074BFB
:1003CC001B68002B01D1FFF709FF074B64221A6051
:1003DC0000BF80BD24000020200000202800002049
:1003EC00000801402C0000203800002080B500AF30
:1003FC00384B1B68002B02D00B2B15D067E0364B0B
:10040C001B68012B07D12021344801F046F84FF42A
:10041C007A7000F0D1FB324B1B68184600F02AF9B9
:10042C002C4B01221A6052E02B4B1B68012B07D17D
:10043C0020212A4801F031F84FF47A7000F0BCFB0F
:10044C00274B1B68184600F015F9264B1B68012B2F
:10045C000FD1234B1B68002B0BDD214B1B68013B81
:10046C001F4A13601B4B0B221A604FF47A7000F07A
:10047C00D7FBFFF765FE0346012B09D1154B022272
:10048C001A60174B1B68002B02DA154B00221A60FE
:10049C00FFF768FE0346012B09D10E4B03221A60AD
:1004AC000F4B1B68002B02DA0D4B00221A60FFF772
:1004BC006BFE0346012B09D1064B04221A60084B34
:1004CC001B68002B02DA064B00221A6000BF00BF2B
:1004DC0080BD00BF74000020800000200008014097
:1004EC00780000209000002080B500AF5C4B1B68AA
:1004FC00013B032B00F2AF8001A252F823F000BFA6
:10050C001D05000897050008CF050008190600080E
:10051C00544B1B68012B07D12021534800F0BDFF21
:10052C004FF47A7000F048FB504B1B68184600F0F3
:10053C00A1F84F4B1B68012B02D1494B0B221A60BF
:10054C00FFF7FEFD0346002B06D0454B02221A6036
:10055C004FF47A7000F064FBFFF704FE0346002BA7
:10056C0006D03F4B03221A604FF47A7000F058FB10
:10057C00FFF70AFE0346002B6FD0394B04221A609A
:10058C004FF47A7000F04CFB67E042F2107000F010
:10059C002DFB364B00221A60324B1B68012B07D106
:1005AC002021314800F079FF4FF47A7000F004FB01
:1005BC002E4B1B68184600F05DF8294B01221A607F
:1005CC004CE042F2107000F011FB284B1B68013319
:1005DC00264A1360234B1B68012B07D1202122488C
:1005EC0000F05BFF4FF47A7000F0E6FA1F4B1B68CB
:1005FC00092B02DD1D4B00221A601C4B1B68184690
:10060C0000F038F8164B01221A6027E042F2107005
:10061C0000F0ECFA154B1B68013B144A1360114BAC
:10062C001B68012B07D120210F4800F036FF4FF437
:10063C007A7000F0C1FA0D4B1B68002B02DA0B4BE1
:10064C0009221A60094B1B68184600F013F8044B7A
:10065C0001221A6002E000BF00E000BF00BF80BDB5
:10066C007400002080000020000801407800002069
:10067C008800002080B582B000AF78607B68002BCA
:10068C0022D100220121BD4800F0EFFE0022022100
:10069C00BA4800F0EAFE00220421B84800F0E5FE5A
:1006AC0000220821B54800F0E0FE00221021B348DA
:1006BC0000F0DBFE00222021B04800F0D6FE012223
:1006CC004021AE4800F0D1FE7B68012B22D10122E3
:1006DC000121AA4800F0C9FE00220221A74800F01F
:1006EC00C4FE00220421A54800F0BFFE012208210F
:1006FC00A24800F0BAFE01221021A04800F0B5FE7D
:10070C00012220219D4800F0B0FE012240219B488F
:10071C0000F0ABFE7B68022B22D10022012197480E
:10072C0000F0A3FE00220221944800F09EFE01225C
:10073C000421924800F099FE002208218F4800F015
:10074C0094FE002210218D4800F08FFE0122202102
:10075C008A4800F08AFE00224021884800F085FE7D
:10076C007B68032B22D100220121844800F07DFEFE
:10077C0000220221814800F078FE002204217F48EB
:10078C0000F073FE002208217C4800F06EFE01226E
:10079C0010217A4800F069FE01222021774800F0F0
:1007AC0064FE00224021754800F05FFE7B68042B3C
:1007BC0022D101220121714800F057FE00220221B2
:1007CC006E4800F052FE002204216C4800F04DFEF1
:1007DC0001220821694800F048FE012210216748D7
:1007EC0000F043FE00222021644800F03EFE00226F
:1007FC004021624800F039FE7B68052B22D1002293
:10080C0001215E4800F031FE012202215B4800F01C
:10081C002CFE00220421594800F027FE002208215A
:10082C00564800F022FE01221021544800F01DFE13
:10083C0000222021514800F018FE002240214F4890
:10084C0000F013FE7B68062B22D1002201214B48BD
:10085C0000F00BFE01220221484800F006FE0022A7
:10086C000421464800F001FE00220821434800F014
:10087C00FCFD00221021414800F0F7FD0022202150
:10088C003E4800F0F2FD002240213C4800F0EDFD16
:10089C007B68072B22D100220121384800F0E5FDAE
:1008AC0000220221354800F0E0FD002204213348EB
:1008BC0000F0DBFD01220821304800F0D6FD0122BA
:1008CC0010212E4800F0D1FD012220212B4800F0F0
:1008DC00CCFD01224021294800F0C7FD7B68082B84
:1008EC0022D100220121254800F0BFFD0022022167
:1008FC00224800F0BAFD00220421204800F0B5FD8A
:10090C00002208211D4800F0B0FD002210211B48D8
:10091C0000F0ABFD00222021184800F0A6FD0022BB
:10092C004021164800F0A1FD7B68092B22D1002242
:10093C000121124800F099FD002202210F4800F01D
:10094C0094FD002204210D4800F08FFD00220821A7
:10095C000A4800F08AFD01221021084800F085FDAC
:10096C0000222021054800F080FD00224021034890
:10097C0000F07BFD00BF0837BD4680BD000C014078
:10098C0080B500AF00F070FA00F018F800F09EF897
:10099C0000F050F8074801F0D1F94FF47A7000F0EC
:1009AC000BF9054B00221A60FFF720FDFFF79CFDA9
:1009BC00FAE700BF9C0000207400002080B590B0C6
:1009CC0000AF07F1180328220021184601F06EFD34
:1009DC003B1D00221A605A609A60DA601A61022389
:1009EC00BB610123BB621023FB6200237B6307F115
:1009FC001803184600F06AFD0346002B01D000F0E6
:100A0C00D5F80F237B600023BB600023FB60002321
:100A1C003B6100237B613B1D0021184600F0D6FF93
:100A2C000346002B01D000F0C1F800BF4037BD4693
:100A3C0080BD000080B586B000AF07F1080300222E
:100A4C001A605A609A60DA603B4600221A605A605B
:100A5C001D4B4FF080421A601B4B41F63F725A609F
:100A6C00194B00229A60184B0922DA60164B0022AF
:100A7C001A61154B00229A61134801F00FF90346D5
:100A8C00002B01D000F092F84FF48053BB6007F1BB
:100A9C00080319460C4801F0A5FA0346002B01D0B7
:100AAC0000F084F800233B6000237B603B46194632
:100ABC00054801F06DFC0346002B01D000F076F8E0
:100ACC0000BF1837BD4680BD9C00002080B586B0A5
:100ADC0000AF07F1080300221A605A609A60DA60CE
:100AEC00274B9B69264A43F004039361244B9B6973
:100AFC0003F004037B607B68214B9B69204A43F025
:100B0C00080393611E4B9B6903F008033B603B6831
:100B1C00002220211B4800F0A8FC00227F211A484B
:100B2C0000F0A3FC2023BB600123FB6000233B618E
:100B3C0002237B6107F108031946124800F004FBFD
:100B4C007F23BB600123FB6000233B6102237B619D
:100B5C0007F1080319460C4800F0F6FA4FF4E0636D
:100B6C00BB600023FB6001233B6107F108031946BE
:100B7C00044800F0E9FA00BF1837BD4680BD00BF3D
:100B8C000010024000080140000C014080B582B00A
:100B9C0000AF786000F05EF8FFF72CFBFFF77EFBF0
:100BAC00FFF7D0FB00BF0837BD4680BD80B400AF57
:100BBC0072B600BFFEE7000080B483B000AF78606F
:100BCC00074B1B687A6892FBF3F3064A1360064BDB
:100BDC0000221A6000BF0C37BD4680BC704700BFB6
:100BEC003C0000207C0000208000002080B483B0FA
:100BFC0000AF7860074B1B687A6892FBF3F3064AE8
:100C0C001360064B00221A6000BF0C37BD4680BC37
:100C1C00704700BF3C0000208400002088000020AA
:100C2C0080B483B000AF7860074B1B687A6892FB86
:100C3C00F3F3064A1360064B00221A6000BF0C3710
:100C4C00BD4680BC704700BF3C0000208C000020DB
:100C5C009000002080B400AF214B1B68002B0BDDF3
:100C6C001F4B1B68013B1E4A13601D4B1B68002B5E
:100C7C0002DC1C4B01221A601B4B1B68002B0BDD8A
:100C8C00194B1B68013B184A1360174B1B68002B50
:100C9C0002DC164B01221A60154B1B68002B0BDD76
:100CAC00134B1B68013B124A1360114B1B68002B42
:100CBC0002DC104B01221A600F4B1B68002B0BDD62
:100CCC000D4B1B68013B0C4A13600B4B1B68002B34
:100CDC0002DC0A4B01221A6000BFBD4680BC704783
:100CEC007C00002080000020840000208800002070
:100CFC008C00002090000020940000209800002020
:100D0C0080B485B000AF154B9B69144A43F00103C6
:100D1C009361124B9B6903F00103BB60BB680F4BE3
:100D2C00DB690E4A43F08053D3610C4BDB6903F053
:100D3C0080537B607B680A4B5B68FB60FB6823F02D
:100D4C00E063FB60FB6843F08063FB60044AFB6874
:100D5C00536000BF1437BD4680BC70470010024082
:100D6C000000014080B584B000AF78607B681B68E0
:100D7C00B3F1804F13D10C4BDB690B4A43F00103E9
:100D8C00D361094BDB6903F00103FB60FB680022B4
:100D9C0000211C2000F0A1F91C2000F0BAF900BFC2
:100DAC001037BD4680BD00BF0010024080B400AFBC
:100DBC00FEE780B400AFFEE780B400AFFEE780B47E
:100DCC0000AFFEE780B400AFFEE780B400AF00BF19
:100DDC00BD4680BC704780B400AF00BFBD4680BC30
:100DEC00704780B400AF00BFBD4680BC704780B573
:100DFC0000AF00F07FF800BF80BD000080B500AFF1
:100E0C00024800F0E7FF00BF80BD00BF9C0000203F
:100E1C0080B400AF00BFBD4680BC70470C480D4984
:100E2C000D4A002302E0D458C4500433C4188C4239
:100E3C00F9D30A4A0A4C002301E013600432A2429F
:100E4C00FBD3FFF7E5FF01F00DFBFFF799FD7047B2
:100E5C00000000204C000020082500084C00002059
:100E6C00E8000020FEE7000080B500AF084B1B68CF
:100E7C00074A43F010031360032000F023F90F20FE
:100E8C0000F008F8FFF73CFF0023184680BD00BFB8
:100E9C000020024080B582B000AF7860124B1A6817
:100EAC00124B1B7819464FF47A73B3FBF1F3B2FB78
:100EBC00F3F3184600F03BF90346002B01D0012355
:100ECC000EE07B680F2B0AD8002279684FF0FF30B8
:100EDC0000F003F9064A7B681360002300E001234D
:100EEC0018460837BD4680BD400000204800002051
:100EFC004400002080B400AF054B1B781A46054B0C
:100F0C001B681344034A136000BFBD4680BC704786
:100F1C0048000020E400002080B400AF024B1B68A6
:100F2C001846BD4680BC7047E400002080B485B0F4
:100F3C0000AF78607B6803F00703FB600C4BDB6849
:100F4C00BB60BA684FF6FF031340BB60FB681A0224
:100F5C00BB68134343F0BF6343F40033BB60044AE4
:100F6C00BB68D36000BF1437BD4680BC704700BF60
:100F7C0000ED00E080B400AF044BDB681B0A03F00B
:100F8C0007031846BD4680BC704700BF00ED00E06B
:100F9C0080B483B000AF0346FB7197F90730002B88
:100FAC000BDBFB7903F01F02064997F907305B094D
:100FBC00012000FA02F241F8232000BF0C37BD4695
:100FCC0080BC704700E100E080B483B000AF034602
:100FDC003960FB7197F90730002B0ADB3B68DAB2FA
:100FEC000C4997F907301201D2B20B4483F8002355
:100FFC000AE03B68DAB20849FB7903F00F03043BC3
:10100C001201D2B20B441A7600BF0C37BD4680BC1D
:10101C00704700BF00E100E000ED00E080B489B053
:10102C0000AFF860B9607A60FB6803F00703FB61FE
:10103C00FB69C3F10703042B28BF0423BB61FB69C5
:10104C000433062B02D9FB69033B00E000237B61D0
:10105C004FF0FF32BB6902FA03F3DA43BB681A4064
:10106C007B699A404FF0FF317B6901FA03F3D94356
:10107C007B680B40134318462437BD4680BC704731
:10108C0080B582B000AF78607B68013BB3F1807FA4
:10109C0001D301230FE00A4A7B68013B53600F2107
:1010AC004FF0FF30FFF790FF054B00229A60044B86
:1010BC0007221A60002318460837BD4680BD00BFC2
:1010CC0010E000E080B582B000AF78607868FFF780
:1010DC002DFF00BF0837BD4680BD80B586B000AF80
:1010EC000346B9607A60FB7300237B61FFF742FF14
:1010FC0078617A68B9687869FFF790FF024697F9CA
:10110C000F3011461846FFF75FFF00BF1837BD467A
:10111C0080BD80B582B000AF0346FB7197F90730F4
:10112C001846FFF735FF00BF0837BD4680BD80B5B8
:10113C0082B000AF78607868FFF7A2FF03461846CC
:10114C000837BD4680BD000080B48BB000AF78601E
:10115C00396000237B6200233B6248E101227B6AF9
:10116C0002FA03F3FB613B681B68FA691340BB612D
:10117C00BA69FB699A4240F037813B685B68A34AC5
:10118C0093425ED0A14A934275D8A14A934258D05B
:10119C009F4A93426FD89F4A934252D09D4A9342A2
:1011AC0069D89D4A93424CD09B4A934263D89B4A40
:1011BC00934246D0994A93425DD8122B2AD8122BCF
:1011CC0059D801A252F823F04F1200082912000836
:1011DC003B1200087D1200088312000883120008DD
:1011EC00831200088312000883120008831200087F
:1011FC00831200088312000883120008831200086F
:10120C0083120008831200088312000831120008B0
:10121C0045120008824A934213D02CE03B68DB68ED
:10122C003B6229E03B68DB6804333B6224E03B68AB
:10123C00DB6808333B621FE03B68DB680C333B62C6
:10124C001AE03B689B68002B02D104233B6213E03D
:10125C003B689B68012B05D108233B627B68FA69CC
:10126C001A6109E008233B627B68FA695A6103E062
:10127C0000233B6200E000BFBB69FF2B01D87B68F9
:10128C0001E07B6804337B61BB69FF2B02D87B6A6E
:10129C009B0002E07B6A083B9B003B617B691A6800
:1012AC000F213B6901FA03F3DB431A40396A3B69AE
:1012BC0001FA03F31A437B691A603B685B6803F01D
:1012CC008053002B00F09080564B9B69554A43F09D
:1012DC0001039361534B9B6903F00103BB60BB6833
:1012EC00514A7B6A9B08023352F82330FB607B6ABD
:1012FC0003F003039B000F2202FA03F3DB43FA68AB
:10130C001340FB607B68494A93420DD07B68484A86
:10131C00934207D07B68474A934201D1022304E0F1
:10132C00032302E0012300E000237A6A02F00302A7
:10133C0092009340FA681343FB603B497B6A9B081D
:10134C000233FA6841F823203B685B6803F480336E
:10135C00002B06D0384B1A683749BB6913430B6016
:10136C0006E0354B1A68BB69DB43334913400B600D
:10137C003B685B6803F40033002B06D02E4B5A6895
:10138C002D49BB6913434B6006E02B4B5A68BB6974
:10139C00DB43294913404B603B685B6803F48013C3
:1013AC00002B06D0244B9A682349BB6913438B60EE
:1013BC0006E0214B9A68BB69DB431F4913408B60E5
:1013CC003B685B6803F40013002B06D01A4BDA68F9
:1013DC001949BB691343CB6006E0174BDA68BB694C
:1013EC00DB4315491340CB607B6A01337B623B685E
:1013FC001A687B6A22FA03F3002B7FF4AFAE00BFAE
:10140C0000BF2C37BD4680BC704700BF00003210B7
:10141C0000003110000022100000211000001210FA
:10142C0000001110001002400000014000080140B3
:10143C00000C0140001001400004014080B485B054
:10144C0000AF78600B467B807B689A687B88134082
:10145C00002B02D00123FB7301E00023FB73FB7B09
:10146C0018461437BD4680BC704780B483B000AFBB
:10147C0078600B467B8013467B707B78002B03D007
:10148C007A887B681A6103E07B881A047B681A618E
:10149C0000BF0C37BD4680BC704780B485B000AF30
:1014AC0078600B467B807B68DB68FB607A88FB6826
:1014BC0013401A04FB68D9437B880B401A437B68A2
:1014CC001A6100BF1437BD4680BC704780B586B02A
:1014DC0000AF78607B68002B01D101236CE27B6844
:1014EC001B6803F00103002B00F08780924B5B68B4
:1014FC0003F00C03042B0CD08F4B5B6803F00C0334
:10150C00082B12D18C4B5B6803F48033B3F5803F0E
:10151C000BD1894B1B6803F40033002B6CD07B6818
:10152C005B68002B68D1012346E27B685B68B3F5EE
:10153C00803F06D1804B1B687F4A43F48033136095
:10154C002EE07B685B68002B0CD17B4B1B687A4AC6
:10155C0023F480331360784B1B68774A23F4802381
:10156C0013601DE07B685B68B3F5A02F0CD1724B48
:10157C001B68714A43F4802313606F4B1B686E4ADF
:10158C0043F4803313600BE06B4B1B686A4A23F403
:10159C0080331360684B1B68674A23F48023136005
:1015AC007B685B68002B13D0FFF7B6FC386108E052
:1015BC00FFF7B2FC02463B69D31A642B01D9032313
:1015CC00FAE15D4B1B6803F40033002BF0D014E000
:1015DC00FFF7A2FC386108E0FFF79EFC02463B696E
:1015EC00D31A642B01D90323E6E1534B1B6803F494
:1015FC000033002BF0D100E000BF7B681B6803F0C8
:10160C000203002B63D04C4B5B6803F00C03002BE4
:10161C000BD0494B5B6803F00C03082B1CD1464BD9
:10162C005B6803F48033002B16D1434B1B6803F02B
:10163C000203002B05D07B681B69012B01D0012311
:10164C00BAE13D4B1B6823F0F8027B685B69DB0059
:10165C00394913430B603AE07B681B69002B20D09F
:10166C00364B01221A60FFF757FC386108E0FFF790
:10167C0053FC02463B69D31A022B01D903239BE18D
:10168C002D4B1B6803F00203002BF0D02A4B1B6878
:10169C0023F0F8027B685B69DB00274913430B607E
:1016AC0015E0264B00221A60FFF736FC386108E083
:1016BC00FFF732FC02463B69D31A022B01D90323F4
:1016CC007AE11D4B1B6803F00203002BF0D17B6801
:1016DC001B6803F00803002B3AD07B689B69002B36
:1016EC0019D0174B01221A60FFF716FC386108E07D
:1016FC00FFF712FC02463B69D31A022B01D90323D4
:10170C005AE10D4B5B6A03F00203002BF0D0012071
:10171C0000F0A6FA1CE00A4B00221A60FFF7FCFB53
:10172C0038610FE0FFF7F8FB02463B69D31A022B36
:10173C0008D9032340E100BF0010024000004242E0
:10174C00800442429E4B5B6A03F00203002BE9D1FA
:10175C007B681B6803F00403002B00F0A6800023B9
:10176C00FB75974BDB6903F08053002B0DD1944B29
:10177C00DB69934A43F08053D361914BDB6903F0EF
:10178C008053BB60BB680123FB758E4B1B6803F455
:10179C008073002B18D18B4B1B688A4A43F48073DF
:1017AC001360FFF7B9FB386108E0FFF7B5FB0246A1
:1017BC003B69D31A642B01D90323FDE0814B1B68D1
:1017CC0003F48073002BF0D07B68DB68012B06D10F
:1017DC007B4B1B6A7A4A43F0010313622DE07B6852
:1017EC00DB68002B0CD1764B1B6A754A23F0010386
:1017FC001362734B1B6A724A23F0040313621CE0DE
:10180C007B68DB68052B0CD16D4B1B6A6C4A43F073
:10181C00040313626A4B1B6A694A43F001031362A7
:10182C000BE0674B1B6A664A23F001031362644B9F
:10183C001B6A634A23F0040313627B68DB68002B8A
:10184C0015D0FFF769FB38610AE0FFF765FB02462C
:10185C003B69D31A41F28832934201D90323ABE09E
:10186C00574B1B6A03F00203002BEED014E0FFF77A
:10187C0053FB38610AE0FFF74FFB02463B69D31A72
:10188C0041F28832934201D9032395E04C4B1B6AF9
:10189C0003F00203002BEED1FB7D012B05D1484B4D
:1018AC00DB69474A23F08053D3617B68DB69002BEB
:1018BC0000F08180424B5B6803F00C03082B61D075
:1018CC007B68DB69022B46D13F4B00221A60FFF785
:1018DC0023FB386108E0FFF71FFB02463B69D31A74
:1018EC00022B01D9032367E0354B1B6803F000730F
:1018FC00002BF0D17B681B6AB3F5803F08D1304BCD
:10190C005B6823F400327B689B682D4913434B6062
:10191C002B4B5B6823F474127B68196A7B685B6AD7
:10192C000B43274913434B60274B01221A60FFF7E7
:10193C00F3FA386108E0FFF7EFFA02463B69D31A75
:10194C00022B01D9032337E01D4B1B6803F00073F6
:10195C00002BF0D02FE01C4B00221A60FFF7DCFAB2
:10196C00386108E0FFF7D8FA02463B69D31A022B1C
:10197C0001D9032320E0124B1B6803F00073002BEA
:10198C00F0D118E07B68DB69012B01D1012313E056
:10199C000B4B5B68FB60FB6803F480327B681B6A53
:1019AC009A4206D1FB6803F470127B685B6A9A4218
:1019BC0001D0012300E0002318461837BD4680BD36
:1019CC0000100240007000406000424280B584B0BC
:1019DC0000AF786039607B68002B01D10123D0E027
:1019EC006A4B1B6803F007033A689A4210D9674B9D
:1019FC001B6823F0070265493B6813430B60634B7C
:101A0C001B6803F007033A689A4201D00123B8E03F
:101A1C007B681B6803F00203002B20D07B681B68DB
:101A2C0003F00403002B05D0594B5B68584A43F470
:101A3C00E06353607B681B6803F00803002B05D040
:101A4C00534B5B68524A43F460535360504B5B6892
:101A5C0023F0F0027B689B684D4913434B607B6815
:101A6C001B6803F00103002B40D07B685B68012BE3
:101A7C0007D1474B1B6803F40033002B15D101230E
:101A8C007FE07B685B68022B07D1414B1B6803F03E
:101A9C000073002B09D1012373E03D4B1B6803F04D
:101AAC000203002B01D101236BE0394B5B6823F05F
:101ABC0003027B685B68364913434B60FFF72CFAD3
:101ACC00F8600AE0FFF728FA0246FB68D31A41F2E5
:101ADC008832934201D9032353E02D4B5B6803F00A
:101AEC000C027B685B689B009A42EBD1274B1B680E
:101AFC0003F007033A689A4210D2244B1B6823F078
:101B0C00070222493B6813430B60204B1B6803F010
:101B1C0007033A689A4201D0012332E07B681B68C4
:101B2C0003F00403002B08D0194B5B6823F4E0622C
:101B3C007B68DB68164913434B607B681B6803F0BA
:101B4C000803002B09D0124B5B6823F460527B68AE
:101B5C001B69DB000E4913434B6000F021F8024671
:101B6C000B4B5B681B0903F00F030A49CB5C22FA91
:101B7C0003F3094A1360094B1B681846FFF78AF9EF
:101B8C00002318461037BD4680BD00BF0020024020
:101B9C0000100240F0240008400000204400002007
:101BAC0090B48AB000AF2A4B3C1D0FCB84E80F00D9
:101BBC0040F201233B800023FB610023BB61002327
:101BCC007B6200237B6100233B62224B5B68FB61E1
:101BDC00FB6903F00C03042B02D0082B03D02DE07F
:101BEC001D4B3B622DE0FB699B0C03F00F0307F1CF
:101BFC002802134413F8243C7B61FB6903F4803303
:101C0C00002B13D0134B5B685B0C03F0010307F143
:101C1C002802134413F8283CBB617B690E4A02FB73
:101C2C0003F2BB69B2FBF3F37B6204E07B690B4A02
:101C3C0002FB03F37B627B6A3B6202E0064B3B6276
:101C4C0000BF3B6A18462837BD4690BC704700BFA2
:101C5C00E02400080010024000127A0000093D0048
:101C6C0080B485B000AF78600A4B1B680A4AA2FBAF
:101C7C0003235B0A7A6802FB03F3FB6000BFFB687B
:101C8C005A1EFA60002BF9D100BF00BF1437BD46B5
:101C9C0080BC704740000020D34D621080B582B0EC
:101CAC0000AF78607B68002B01D1012341E07B6899
:101CBC0093F83D30DBB2002B06D17B68002283F811
:101CCC003C207868FFF74EF87B68022283F83D20B1
:101CDC007B681A687B6804331946104600F06AFA70
:101CEC007B68012283F846207B68012283F83E2022
:101CFC007B68012283F83F207B68012283F8402017
:101D0C007B68012283F841207B68012283F8422002
:101D1C007B68012283F843207B68012283F84420EE
:101D2C007B68012283F845207B68012283F83D20E3
:101D3C00002318460837BD4680BD000080B485B02E
:101D4C0000AF78607B6893F83D30DBB2012B01D09B
:101D5C00012335E07B68022283F83D207B681B68F9
:101D6C00DA687B681B6842F00102DA607B681B68EA
:101D7C00164A934209D07B681B68B3F1804F04D09C
:101D8C007B681B68124A934211D17B681B689B6865
:101D9C0003F00703FB60FB68062B10D07B681B6805
:101DAC001A687B681B6842F001021A6007E07B68C6
:101DBC001B681A687B681B6842F001021A600023DA
:101DCC0018461437BD4680BC704700BF002C01403C
:101DDC000004004080B582B000AF78607B681B685F
:101DEC001B6903F00203022B22D17B681B68DB68A2
:101DFC0003F00203022B1BD17B681B686FF00202FD
:101E0C001A617B6801221A777B681B689B6903F057
:101E1C000303002B03D0786800F0B1F905E0786873
:101E2C0000F0A4F9786800F0B3F97B6800221A7707
:101E3C007B681B681B6903F00403042B22D17B68AD
:101E4C001B68DB6803F00403042B1BD17B681B6845
:101E5C006FF004021A617B6802221A777B681B6898
:101E6C009B6903F44073002B03D0786800F087F96A
:101E7C0005E0786800F07AF9786800F089F97B68F9
:101E8C0000221A777B681B681B6903F00803082B78
:101E9C0022D17B681B68DB6803F00803082B1BD17D
:101EAC007B681B686FF008021A617B6804221A7742
:101EBC007B681B68DB6903F00303002B03D0786895
:101ECC0000F05DF905E0786800F050F9786800F0F2
:101EDC005FF97B6800221A777B681B681B6903F02B
:101EEC001003102B22D17B681B68DB6803F01003F6
:101EFC00102B1BD17B681B686FF010021A617B687A
:101F0C0008221A777B681B68DB6903F44073002B8B
:101F1C0003D0786800F033F905E0786800F026F912
:101F2C00786800F035F97B6800221A777B681B68AB
:101F3C001B6903F00103012B0ED17B681B68DB6866
:101F4C0003F00103012B07D17B681B686FF00102C2
:101F5C001A617868FEF71AFE7B681B681B6903F030
:101F6C008003802B0ED17B681B68DB6803F0800339
:101F7C00802B07D17B681B686FF080021A61786830
:101F8C0000F067FA7B681B681B6903F04003402B69
:101F9C000ED17B681B68DB6803F04003402B07D134
:101FAC007B681B686FF040021A61786800F0F9F8E2
:101FBC007B681B681B6903F02003202B0ED17B6808
:101FCC001B68DB6803F02003202B07D17B681B68A0
:101FDC006FF020021A61786800F032FA00BF0837FF
:101FEC00BD4680BD80B584B000AF786039607B6839
:101FFC0093F83C30012B01D10223B3E07B68012222
:10200C0083F83C207B68022283F83D207B681B68A8
:10201C009B68FB60FB6823F07703FB60FB6823F491
:10202C007F43FB607B681B68FA689A603B681B689F
:10203C00B3F5005F3ED0B3F5005F00F28780B3F5D7
:10204C00805F00F08580B3F5805F7FD8702B1AD04D
:10205C00702B7BD8602B50D0602B77D8502B3CD07A
:10206C00502B73D8402B58D0402B6FD8302B64D0CA
:10207C00302B6BD8202B60D0202B67D8002B5CD05A
:10208C00102B5AD062E07B6818683B6899683B68F3
:10209C005A683B68DB6800F05CF97B681B689B68DE
:1020AC00FB60FB6843F07703FB607B681B68FA6896
:1020BC009A604EE07B6818683B6899683B685A6880
:1020CC003B68DB6800F045F97B681B689A687B68A5
:1020DC001B6842F480429A603BE07B6818683B685E
:1020EC0059683B68DB681A4600F0BCF87B681B68D3
:1020FC005021184600F013F92BE07B6818683B68F8
:10210C0059683B68DB681A4600F0DAF87B681B6894
:10211C006021184600F003F91BE07B6818683B68E7
:10212C0059683B68DB681A4600F09CF87B681B68B2
:10213C004021184600F0F3F80BE07B681A683B6806
:10214C001B681946104600F0EAF802E000BF00E0F8
:10215C0000BF7B68012283F83D207B68002283F856
:10216C003C20002318461037BD4680BD80B483B098
:10217C0000AF786000BF0C37BD4680BC704780B4A0
:10218C0083B000AF786000BF0C37BD4680BC704791
:10219C0080B483B000AF786000BF0C37BD4680BC04
:1021AC00704780B483B000AF786000BF0C37BD4679
:1021BC0080BC704780B485B000AF786039607B68B4
:1021CC001B68FB607B68254A934207D07B68B3F1A0
:1021DC00804F03D07B68224A934208D1FB6823F0DE
:1021EC007003FB603B685B68FA681343FB607B68B9
:1021FC001A4A934207D07B68B3F1804F03D07B68B7
:10220C00174A934208D1FB6823F44073FB603B6888
:10221C00DB68FA681343FB60FB6823F080023B68C1
:10222C005B691343FB607B68FA681A603B689A68C9
:10223C007B68DA623B681A687B689A627B68074A3B
:10224C00934203D13B681A697B681A637B6801224D
:10225C005A6100BF1437BD4680BC7047002C01404A
:10226C000004004080B487B000AFF860B9607A60B9
:10227C00FB681B6A7B61FB681B6A23F00102FB682D
:10228C001A62FB689B693B613B6923F0F0033B617D
:10229C007B681B013A6913433B617B6923F00A039A
:1022AC007B617A69BB6813437B61FB683A699A610D
:1022BC00FB687A691A6200BF1C37BD4680BC704748
:1022CC0080B487B000AFF860B9607A60FB681B6AB5
:1022DC0023F01002FB681A62FB689B697B61FB6848
:1022EC001B6A3B617B6923F470437B617B681B0336
:1022FC007A6913437B613B6923F0A0033B61BB68A4
:10230C001B013A6913433B61FB687A699A61FB686C
:10231C003A691A6200BF1C37BD4680BC704780B456
:10232C0085B000AF786039607B689B68FB60FB68A8
:10233C0023F07003FB603A68FB68134343F0070318
:10234C00FB607B68FA689A6000BF1437BD4680BC9E
:10235C00704780B487B000AFF860B9607A603B60BA
:10236C00FB689B687B617B6923F47F437B613B68E3
:10237C001A027B681A43BB6813437A6913437B6167
:10238C00FB687A699A6000BF1C37BD4680BC7047F9
:10239C0080B485B000AF786039607B6893F83C30CE
:1023AC00012B01D1022341E07B68012283F83C2000
:1023BC007B68022283F83D207B681B685B68FB60AE
:1023CC007B681B689B68BB60FB6823F07003FB6039
:1023DC003B681B68FA681343FB607B681B68FA68F0
:1023EC005A607B681B68144A934209D07B681B684F
:1023FC00B3F1804F04D07B681B68104A93420CD118
:10240C00BB6823F08003BB603B685B68BA6813430E
:10241C00BB607B681B68BA689A607B68012283F892
:10242C003D207B68002283F83C200023184614379B
:10243C00BD4680BC704700BF002C0140000400402A
:10244C0080B483B000AF786000BF0C37BD4680BC51
:10245C00704780B483B000AF786000BF0C37BD46C6
:10246C0080BC704770B500260C4D0D4C641BA4103D
:10247C00A64209D100F022F800260A4D0A4C641B32
:10248C00A410A64205D170BD55F8043B98470136FF
:10249C00EEE755F8043B98470136F2E700250008B3
:1024AC000025000800250008042500080346024406
:1024BC00934200D1704703F8011BF9E7F8B500BF50
:1024CC00F8BC08BC9E467047F8B500BFF8BC08BC09
:0424DC009E46704761
:1024E00002030405060708090A0B0C0D0E0F101055
:1024F00000000000000000000102030406070809B4
:04250000310100089D
:042504000D010008BD
:1025080001000000010000000100000001000000BF
:1025180001000000010000000100000001000000AF
:10252800010000000100000001000000010000009F
:10253800640000002C0100002C0100000A000000CB
:0C2548000024F40010000000010000005E
:0400000508000E29B8
:00000001FF
